{
  "contractName": "TodoList",
  "abi": [
    {
      "constant": true,
      "inputs": [
        {
          "name": "",
          "type": "uint256"
        }
      ],
      "name": "tasks",
      "outputs": [
        {
          "name": "id",
          "type": "uint256"
        },
        {
          "name": "content",
          "type": "string"
        },
        {
          "name": "completed",
          "type": "bool"
        }
      ],
      "payable": false,
      "stateMutability": "view",
      "type": "function",
      "signature": "0x8d977672"
    },
    {
      "constant": true,
      "inputs": [],
      "name": "taskCount",
      "outputs": [
        {
          "name": "",
          "type": "uint256"
        }
      ],
      "payable": false,
      "stateMutability": "view",
      "type": "function",
      "signature": "0xb6cb58a5"
    },
    {
      "inputs": [],
      "payable": false,
      "stateMutability": "nonpayable",
      "type": "constructor",
      "signature": "constructor"
    },
    {
      "anonymous": false,
      "inputs": [
        {
          "indexed": false,
          "name": "id",
          "type": "uint256"
        },
        {
          "indexed": false,
          "name": "content",
          "type": "string"
        },
        {
          "indexed": false,
          "name": "completed",
          "type": "bool"
        }
      ],
      "name": "TaskCreated",
      "type": "event",
      "signature": "0x05d0fb833127fc08168556d0e7ca9554fc3f6bc843b3b7d2bf1c35aea6bab660"
    },
    {
      "anonymous": false,
      "inputs": [
        {
          "indexed": false,
          "name": "id",
          "type": "uint256"
        },
        {
          "indexed": false,
          "name": "completed",
          "type": "bool"
        }
      ],
      "name": "taskCompleted",
      "type": "event",
      "signature": "0xfc8c3643622669a0bb21133ffa1738f6d5c2df6b162da4fed93691abb53c4656"
    },
    {
      "constant": false,
      "inputs": [
        {
          "name": "_spender",
          "type": "address"
        },
        {
          "name": "_value",
          "type": "uint256"
        }
      ],
      "name": "approve",
      "outputs": [
        {
          "name": "success",
          "type": "bool"
        }
      ],
      "payable": false,
      "stateMutability": "nonpayable",
      "type": "function",
      "signature": "0x095ea7b3"
    },
    {
      "constant": false,
      "inputs": [
        {
          "name": "_content",
          "type": "string"
        }
      ],
      "name": "createTask",
      "outputs": [],
      "payable": false,
      "stateMutability": "nonpayable",
      "type": "function",
      "signature": "0x111002aa"
    },
    {
      "constant": false,
      "inputs": [
        {
          "name": "_id",
          "type": "uint256"
        }
      ],
      "name": "toggleCompleted",
      "outputs": [],
      "payable": false,
      "stateMutability": "nonpayable",
      "type": "function",
      "signature": "0x455f5024"
    }
  ],
  "bytecode": "0x60806040526000805534801561001457600080fd5b5060408051808201909152601081527f636865636b206f7574206d797369746500000000000000000000000000000000602082015261005b90640100000000610060810204565b61021f565b60008054600190810180835560408051606081018252828152602080820187815282840187905293865284815291909420845181559151805192936100ad93908501929190910190610184565b5060408201518160020160006101000a81548160ff0219169083151502179055509050507f05d0fb833127fc08168556d0e7ca9554fc3f6bc843b3b7d2bf1c35aea6bab660600054826000604051808481526020018060200183151515158152602001828103825284818151815260200191508051906020019080838360005b8381101561014557818101518382015260200161012d565b50505050905090810190601f1680156101725780820380516001836020036101000a031916815260200191505b5094505050505060405180910390a150565b828054600181600116156101000203166002900490600052602060002090601f016020900481019282601f106101c557805160ff19168380011785556101f2565b828001600101855582156101f2579182015b828111156101f25782518255916020019190600101906101d7565b506101fe929150610202565b5090565b61021c91905b808211156101fe5760008155600101610208565b90565b6106b18061022e6000396000f3fe60806040526004361061006c5763ffffffff7c0100000000000000000000000000000000000000000000000000000000600035041663095ea7b38114610071578063111002aa146100cb578063455f5024146101805780638d977672146101aa578063b6cb58a51461025e575b600080fd5b34801561007d57600080fd5b506100b76004803603604081101561009457600080fd5b5073ffffffffffffffffffffffffffffffffffffffff8135169060200135610285565b604080519115158252519081900360200190f35b3480156100d757600080fd5b5061017e600480360360208110156100ee57600080fd5b81019060208101813564010000000081111561010957600080fd5b82018360208201111561011b57600080fd5b8035906020019184600183028401116401000000008311171561013d57600080fd5b91908080601f01602080910402602001604051908101604052809392919081815260200183838082843760009201919091525092955061028d945050505050565b005b34801561018c57600080fd5b5061017e600480360360208110156101a357600080fd5b50356103b1565b3480156101b657600080fd5b506101d4600480360360208110156101cd57600080fd5b5035610511565b604051808481526020018060200183151515158152602001828103825284818151815260200191508051906020019080838360005b83811015610221578181015183820152602001610209565b50505050905090810190601f16801561024e5780820380516001836020036101000a031916815260200191505b5094505050505060405180910390f35b34801561026a57600080fd5b506102736105c0565b60408051918252519081900360200190f35b600092915050565b60008054600190810180835560408051606081018252828152602080820187815282840187905293865284815291909420845181559151805192936102da939085019291909101906105c6565b5060408201518160020160006101000a81548160ff0219169083151502179055509050507f05d0fb833127fc08168556d0e7ca9554fc3f6bc843b3b7d2bf1c35aea6bab660600054826000604051808481526020018060200183151515158152602001828103825284818151815260200191508051906020019080838360005b8381101561037257818101518382015260200161035a565b50505050905090810190601f16801561039f5780820380516001836020036101000a031916815260200191505b5094505050505060405180910390a150565b6103b9610644565b60008281526001602081815260409283902083516060810185528154815281840180548651600296821615610100026000190190911695909504601f810185900485028601850190965285855290949193858401939092908301828280156104625780601f1061043757610100808354040283529160200191610462565b820191906000526020600020905b81548152906001019060200180831161044557829003601f168201915b50505091835250506002919091015460ff161515602091820152604080830180511590526000858152600180845291902083518155838301518051949550859491936104b3938501929101906105c6565b50604091820151600291909101805460ff1916911515919091179055818101518151848152901515602082015281517ffc8c3643622669a0bb21133ffa1738f6d5c2df6b162da4fed93691abb53c4656929181900390910190a15050565b600160208181526000928352604092839020805481840180548651600296821615610100026000190190911695909504601f810185900485028601850190965285855290949193929091908301828280156105ad5780601f10610582576101008083540402835291602001916105ad565b820191906000526020600020905b81548152906001019060200180831161059057829003601f168201915b5050506002909301549192505060ff1683565b60005481565b828054600181600116156101000203166002900490600052602060002090601f016020900481019282601f1061060757805160ff1916838001178555610634565b82800160010185558215610634579182015b82811115610634578251825591602001919060010190610619565b50610640929150610668565b5090565b60606040519081016040528060008152602001606081526020016000151581525090565b61068291905b80821115610640576000815560010161066e565b9056fea165627a7a72305820d38135329266df94b942b148b895c7dddacab4411fb82029fde4a67d8d13e04f0029",
  "source": "// step 1. main smart contract file\npragma solidity ^0.5.0;\n\ncontract TodoList{\n    // state variable, written to the chain, \n    // belong to the entire contract\n    uint public taskCount = 0;   \n\n    struct Task{\n        uint id;\n        string content;\n        bool completed;\n\n    }\n\n    //mapping is like associative arrays\n    mapping(uint => Task) public tasks; //this associate an uint with each Task struct\n\n    // events are for external consumers to subscribe to, to listen to\n    event TaskCreated(\n        uint id,\n        string content,\n        bool completed\n    );\n\n    event taskCompleted(\n        uint id,\n        bool completed\n    );\n\n    //initialize state variables of a contract in a constructor \n    constructor() public {\n        createTask(\"check out mysite\");\n    }\n\n    function approve(address _spender, uint256 _value) public returns (bool success) {\n        return false;\n    }\n\n    // create a new task and broadcast the TaskCreated event so client side would know\n    function createTask(string memory _content) public {\n        taskCount ++;\n        //similar to populating a dictionary in python\n        tasks[taskCount] = Task(taskCount, _content, false); //instantiate the struct\n\n        emit TaskCreated(taskCount, _content, false);\n    }\n\n    //based on a task's id, toggle it as completed.\n    function toggleCompleted(uint _id) public{\n        // create a variable of type Task\n        // underscore is a convention that names a local var instead of a state var\n        // memory keyword can only be used in methods to pre-specify a chunk of space\n        // for a variable\n        //https://docs.soliditylang.org/en/v0.3.3/frequently-asked-questions.html#what-is-the-memory-keyword-what-does-it-do\n        Task memory _task = tasks[_id];\n        _task.completed = !_task.completed; //toggle true / false\n        tasks[_id] = _task; // store it back in tasks\n        emit taskCompleted(_id, _task.completed);\n         \n    }\n}",
  "sourcePath": "/Users/michael/Documents/Programming/eth-todo-list/contracts/TodoList.sol",
  "compiler": {
    "name": "solc",
    "version": "0.5.0+commit.1d4f565a.Emscripten.clang"
  },
  "schemaVersion": "3.0.1",
  "updatedAt": "2021-12-09T19:17:12.571Z",
  "devdoc": {
    "methods": {}
  },
  "userdoc": {
    "methods": {}
  }
}